{
  "contractName": "BookStore",
  "abi": [
    {
      "inputs": [],
      "stateMutability": "nonpayable",
      "type": "constructor"
    },
    {
      "anonymous": false,
      "inputs": [
        {
          "indexed": true,
          "internalType": "address",
          "name": "account",
          "type": "address"
        },
        {
          "indexed": true,
          "internalType": "address",
          "name": "operator",
          "type": "address"
        },
        {
          "indexed": false,
          "internalType": "bool",
          "name": "approved",
          "type": "bool"
        }
      ],
      "name": "ApprovalForAll",
      "type": "event"
    },
    {
      "anonymous": false,
      "inputs": [
        {
          "indexed": true,
          "internalType": "address",
          "name": "operator",
          "type": "address"
        },
        {
          "indexed": true,
          "internalType": "address",
          "name": "from",
          "type": "address"
        },
        {
          "indexed": true,
          "internalType": "address",
          "name": "to",
          "type": "address"
        },
        {
          "indexed": false,
          "internalType": "uint256[]",
          "name": "ids",
          "type": "uint256[]"
        },
        {
          "indexed": false,
          "internalType": "uint256[]",
          "name": "values",
          "type": "uint256[]"
        }
      ],
      "name": "TransferBatch",
      "type": "event"
    },
    {
      "anonymous": false,
      "inputs": [
        {
          "indexed": true,
          "internalType": "address",
          "name": "operator",
          "type": "address"
        },
        {
          "indexed": true,
          "internalType": "address",
          "name": "from",
          "type": "address"
        },
        {
          "indexed": true,
          "internalType": "address",
          "name": "to",
          "type": "address"
        },
        {
          "indexed": false,
          "internalType": "uint256",
          "name": "id",
          "type": "uint256"
        },
        {
          "indexed": false,
          "internalType": "uint256",
          "name": "value",
          "type": "uint256"
        }
      ],
      "name": "TransferSingle",
      "type": "event"
    },
    {
      "anonymous": false,
      "inputs": [
        {
          "indexed": false,
          "internalType": "string",
          "name": "value",
          "type": "string"
        },
        {
          "indexed": true,
          "internalType": "uint256",
          "name": "id",
          "type": "uint256"
        }
      ],
      "name": "URI",
      "type": "event"
    },
    {
      "inputs": [
        {
          "internalType": "address",
          "name": "account",
          "type": "address"
        },
        {
          "internalType": "uint256",
          "name": "id",
          "type": "uint256"
        }
      ],
      "name": "balanceOf",
      "outputs": [
        {
          "internalType": "uint256",
          "name": "",
          "type": "uint256"
        }
      ],
      "stateMutability": "view",
      "type": "function",
      "constant": true
    },
    {
      "inputs": [
        {
          "internalType": "address[]",
          "name": "accounts",
          "type": "address[]"
        },
        {
          "internalType": "uint256[]",
          "name": "ids",
          "type": "uint256[]"
        }
      ],
      "name": "balanceOfBatch",
      "outputs": [
        {
          "internalType": "uint256[]",
          "name": "",
          "type": "uint256[]"
        }
      ],
      "stateMutability": "view",
      "type": "function",
      "constant": true
    },
    {
      "inputs": [
        {
          "internalType": "address",
          "name": "account",
          "type": "address"
        },
        {
          "internalType": "address",
          "name": "operator",
          "type": "address"
        }
      ],
      "name": "isApprovedForAll",
      "outputs": [
        {
          "internalType": "bool",
          "name": "",
          "type": "bool"
        }
      ],
      "stateMutability": "view",
      "type": "function",
      "constant": true
    },
    {
      "inputs": [
        {
          "internalType": "address",
          "name": "from",
          "type": "address"
        },
        {
          "internalType": "address",
          "name": "to",
          "type": "address"
        },
        {
          "internalType": "uint256[]",
          "name": "ids",
          "type": "uint256[]"
        },
        {
          "internalType": "uint256[]",
          "name": "amounts",
          "type": "uint256[]"
        },
        {
          "internalType": "bytes",
          "name": "data",
          "type": "bytes"
        }
      ],
      "name": "safeBatchTransferFrom",
      "outputs": [],
      "stateMutability": "nonpayable",
      "type": "function"
    },
    {
      "inputs": [
        {
          "internalType": "address",
          "name": "from",
          "type": "address"
        },
        {
          "internalType": "address",
          "name": "to",
          "type": "address"
        },
        {
          "internalType": "uint256",
          "name": "id",
          "type": "uint256"
        },
        {
          "internalType": "uint256",
          "name": "amount",
          "type": "uint256"
        },
        {
          "internalType": "bytes",
          "name": "data",
          "type": "bytes"
        }
      ],
      "name": "safeTransferFrom",
      "outputs": [],
      "stateMutability": "nonpayable",
      "type": "function"
    },
    {
      "inputs": [
        {
          "internalType": "address",
          "name": "operator",
          "type": "address"
        },
        {
          "internalType": "bool",
          "name": "approved",
          "type": "bool"
        }
      ],
      "name": "setApprovalForAll",
      "outputs": [],
      "stateMutability": "nonpayable",
      "type": "function"
    },
    {
      "inputs": [
        {
          "internalType": "bytes4",
          "name": "interfaceId",
          "type": "bytes4"
        }
      ],
      "name": "supportsInterface",
      "outputs": [
        {
          "internalType": "bool",
          "name": "",
          "type": "bool"
        }
      ],
      "stateMutability": "view",
      "type": "function",
      "constant": true
    },
    {
      "inputs": [
        {
          "internalType": "uint256",
          "name": "",
          "type": "uint256"
        }
      ],
      "name": "uri",
      "outputs": [
        {
          "internalType": "string",
          "name": "",
          "type": "string"
        }
      ],
      "stateMutability": "view",
      "type": "function",
      "constant": true
    },
    {
      "inputs": [
        {
          "internalType": "uint256",
          "name": "_quantity",
          "type": "uint256"
        },
        {
          "internalType": "uint256",
          "name": "_price",
          "type": "uint256"
        },
        {
          "internalType": "address",
          "name": "_currency",
          "type": "address"
        }
      ],
      "name": "publish",
      "outputs": [],
      "stateMutability": "nonpayable",
      "type": "function"
    },
    {
      "inputs": [
        {
          "internalType": "uint256",
          "name": "_bookVersionId",
          "type": "uint256"
        }
      ],
      "name": "bookVersionPrice",
      "outputs": [
        {
          "internalType": "uint256",
          "name": "",
          "type": "uint256"
        }
      ],
      "stateMutability": "view",
      "type": "function",
      "constant": true
    }
  ],
  "bytecode": "0x60806040523480156200001157600080fd5b5060405180606001604052806021815260200162002a1b602191396200003d816200004c60201b60201c565b5060016003819055506200017d565b80600290805190602001906200006492919062000068565b5050565b828054620000769062000118565b90600052602060002090601f0160209004810192826200009a5760008555620000e6565b82601f10620000b557805160ff1916838001178555620000e6565b82800160010185558215620000e6579182015b82811115620000e5578251825591602001919060010190620000c8565b5b509050620000f59190620000f9565b5090565b5b8082111562000114576000816000905550600101620000fa565b5090565b600060028204905060018216806200013157607f821691505b602082108114156200014857620001476200014e565b5b50919050565b7f4e487b7100000000000000000000000000000000000000000000000000000000600052602260045260246000fd5b61288e806200018d6000396000f3fe608060405234801561001057600080fd5b506004361061009d5760003560e01c806398e693751161006657806398e693751461017e578063a22cb4651461019a578063d05aa68b146101b6578063e985e9c5146101e6578063f242432a146102165761009d565b8062fdd58e146100a257806301ffc9a7146100d25780630e89341c146101025780632eb2c2d6146101325780634e1273f41461014e575b600080fd5b6100bc60048036038101906100b791906119f6565b610232565b6040516100c991906123a6565b60405180910390f35b6100ec60048036038101906100e79190611a9e565b6102fb565b6040516100f99190612209565b60405180910390f35b61011c60048036038101906101179190611af0565b6103dd565b6040516101299190612224565b60405180910390f35b61014c6004803603810190610147919061186c565b610471565b005b61016860048036038101906101639190611a32565b610512565b60405161017591906121b0565b60405180910390f35b61019860048036038101906101939190611b19565b6106c3565b005b6101b460048036038101906101af91906119ba565b6106ff565b005b6101d060048036038101906101cb9190611af0565b610880565b6040516101dd91906123a6565b60405180910390f35b61020060048036038101906101fb9190611830565b610893565b60405161020d9190612209565b60405180910390f35b610230600480360381019061022b919061192b565b610927565b005b60008073ffffffffffffffffffffffffffffffffffffffff168373ffffffffffffffffffffffffffffffffffffffff1614156102a3576040517f08c379a000000000000000000000000000000000000000000000000000000000815260040161029a90612286565b60405180910390fd5b60008083815260200190815260200160002060008473ffffffffffffffffffffffffffffffffffffffff1673ffffffffffffffffffffffffffffffffffffffff16815260200190815260200160002054905092915050565b60007fd9b67a26000000000000000000000000000000000000000000000000000000007bffffffffffffffffffffffffffffffffffffffffffffffffffffffff1916827bffffffffffffffffffffffffffffffffffffffffffffffffffffffff191614806103c657507f0e89341c000000000000000000000000000000000000000000000000000000007bffffffffffffffffffffffffffffffffffffffffffffffffffffffff1916827bffffffffffffffffffffffffffffffffffffffffffffffffffffffff1916145b806103d657506103d5826109c8565b5b9050919050565b6060600280546103ec90612620565b80601f016020809104026020016040519081016040528092919081815260200182805461041890612620565b80156104655780601f1061043a57610100808354040283529160200191610465565b820191906000526020600020905b81548152906001019060200180831161044857829003601f168201915b50505050509050919050565b610479610a32565b73ffffffffffffffffffffffffffffffffffffffff168573ffffffffffffffffffffffffffffffffffffffff1614806104bf57506104be856104b9610a32565b610893565b5b6104fe576040517f08c379a00000000000000000000000000000000000000000000000000000000081526004016104f5906122e6565b60405180910390fd5b61050b8585858585610a3a565b5050505050565b60608151835114610558576040517f08c379a000000000000000000000000000000000000000000000000000000000815260040161054f90612346565b60405180910390fd5b6000835167ffffffffffffffff81111561059b577f4e487b7100000000000000000000000000000000000000000000000000000000600052604160045260246000fd5b6040519080825280602002602001820160405280156105c95781602001602082028036833780820191505090505b50905060005b84518110156106b857610662858281518110610614577f4e487b7100000000000000000000000000000000000000000000000000000000600052603260045260246000fd5b6020026020010151858381518110610655577f4e487b7100000000000000000000000000000000000000000000000000000000600052603260045260246000fd5b6020026020010151610232565b82828151811061069b577f4e487b7100000000000000000000000000000000000000000000000000000000600052603260045260246000fd5b602002602001018181525050806106b190612652565b90506105cf565b508091505092915050565b6106e0336003548560405180602001604052806000815250610d9a565b6001600360008282546106f39190612514565b92505081905550505050565b8173ffffffffffffffffffffffffffffffffffffffff1661071e610a32565b73ffffffffffffffffffffffffffffffffffffffff161415610775576040517f08c379a000000000000000000000000000000000000000000000000000000000815260040161076c90612326565b60405180910390fd5b8060016000610782610a32565b73ffffffffffffffffffffffffffffffffffffffff1673ffffffffffffffffffffffffffffffffffffffff16815260200190815260200160002060008473ffffffffffffffffffffffffffffffffffffffff1673ffffffffffffffffffffffffffffffffffffffff16815260200190815260200160002060006101000a81548160ff0219169083151502179055508173ffffffffffffffffffffffffffffffffffffffff1661082f610a32565b73ffffffffffffffffffffffffffffffffffffffff167f17307eab39ab6107e8899845ad3d59bd9653f200f220920489ca2b5937696c31836040516108749190612209565b60405180910390a35050565b60006802b5e3af16b18800009050919050565b6000600160008473ffffffffffffffffffffffffffffffffffffffff1673ffffffffffffffffffffffffffffffffffffffff16815260200190815260200160002060008373ffffffffffffffffffffffffffffffffffffffff1673ffffffffffffffffffffffffffffffffffffffff16815260200190815260200160002060009054906101000a900460ff16905092915050565b61092f610a32565b73ffffffffffffffffffffffffffffffffffffffff168573ffffffffffffffffffffffffffffffffffffffff16148061097557506109748561096f610a32565b610893565b5b6109b4576040517f08c379a00000000000000000000000000000000000000000000000000000000081526004016109ab906122a6565b60405180910390fd5b6109c18585858585610f30565b5050505050565b60007f01ffc9a7000000000000000000000000000000000000000000000000000000007bffffffffffffffffffffffffffffffffffffffffffffffffffffffff1916827bffffffffffffffffffffffffffffffffffffffffffffffffffffffff1916149050919050565b600033905090565b8151835114610a7e576040517f08c379a0000000000000000000000000000000000000000000000000000000008152600401610a7590612366565b60405180910390fd5b600073ffffffffffffffffffffffffffffffffffffffff168473ffffffffffffffffffffffffffffffffffffffff161415610aee576040517f08c379a0000000000000000000000000000000000000000000000000000000008152600401610ae5906122c6565b60405180910390fd5b6000610af8610a32565b9050610b088187878787876111b2565b60005b8451811015610d05576000858281518110610b4f577f4e487b7100000000000000000000000000000000000000000000000000000000600052603260045260246000fd5b602002602001015190506000858381518110610b94577f4e487b7100000000000000000000000000000000000000000000000000000000600052603260045260246000fd5b60200260200101519050600080600084815260200190815260200160002060008b73ffffffffffffffffffffffffffffffffffffffff1673ffffffffffffffffffffffffffffffffffffffff16815260200190815260200160002054905081811015610c35576040517f08c379a0000000000000000000000000000000000000000000000000000000008152600401610c2c90612306565b60405180910390fd5b81810360008085815260200190815260200160002060008c73ffffffffffffffffffffffffffffffffffffffff1673ffffffffffffffffffffffffffffffffffffffff168152602001908152602001600020819055508160008085815260200190815260200160002060008b73ffffffffffffffffffffffffffffffffffffffff1673ffffffffffffffffffffffffffffffffffffffff1681526020019081526020016000206000828254610cea9190612514565b9250508190555050505080610cfe90612652565b9050610b0b565b508473ffffffffffffffffffffffffffffffffffffffff168673ffffffffffffffffffffffffffffffffffffffff168273ffffffffffffffffffffffffffffffffffffffff167f4a39dc06d4c0dbc64b70af90fd698a233a518aa5d07e595d983b8c0526c8f7fb8787604051610d7c9291906121d2565b60405180910390a4610d928187878787876111ba565b505050505050565b600073ffffffffffffffffffffffffffffffffffffffff168473ffffffffffffffffffffffffffffffffffffffff161415610e0a576040517f08c379a0000000000000000000000000000000000000000000000000000000008152600401610e0190612386565b60405180910390fd5b6000610e14610a32565b9050610e3581600087610e268861138a565b610e2f8861138a565b876111b2565b8260008086815260200190815260200160002060008773ffffffffffffffffffffffffffffffffffffffff1673ffffffffffffffffffffffffffffffffffffffff1681526020019081526020016000206000828254610e949190612514565b925050819055508473ffffffffffffffffffffffffffffffffffffffff16600073ffffffffffffffffffffffffffffffffffffffff168273ffffffffffffffffffffffffffffffffffffffff167fc3d58168c5ae7397731d063d5bbf3d657854427343f4c083240f7aacaa2d0f628787604051610f129291906123c1565b60405180910390a4610f2981600087878787611450565b5050505050565b600073ffffffffffffffffffffffffffffffffffffffff168473ffffffffffffffffffffffffffffffffffffffff161415610fa0576040517f08c379a0000000000000000000000000000000000000000000000000000000008152600401610f97906122c6565b60405180910390fd5b6000610faa610a32565b9050610fca818787610fbb8861138a565b610fc48861138a565b876111b2565b600080600086815260200190815260200160002060008873ffffffffffffffffffffffffffffffffffffffff1673ffffffffffffffffffffffffffffffffffffffff16815260200190815260200160002054905083811015611061576040517f08c379a000000000000000000000000000000000000000000000000000000000815260040161105890612306565b60405180910390fd5b83810360008087815260200190815260200160002060008973ffffffffffffffffffffffffffffffffffffffff1673ffffffffffffffffffffffffffffffffffffffff168152602001908152602001600020819055508360008087815260200190815260200160002060008873ffffffffffffffffffffffffffffffffffffffff1673ffffffffffffffffffffffffffffffffffffffff16815260200190815260200160002060008282546111169190612514565b925050819055508573ffffffffffffffffffffffffffffffffffffffff168773ffffffffffffffffffffffffffffffffffffffff168373ffffffffffffffffffffffffffffffffffffffff167fc3d58168c5ae7397731d063d5bbf3d657854427343f4c083240f7aacaa2d0f6288886040516111939291906123c1565b60405180910390a46111a9828888888888611450565b50505050505050565b505050505050565b6111d98473ffffffffffffffffffffffffffffffffffffffff16611620565b15611382578373ffffffffffffffffffffffffffffffffffffffff1663bc197c8187878686866040518663ffffffff1660e01b815260040161121f9594939291906120ee565b602060405180830381600087803b15801561123957600080fd5b505af192505050801561126a57506040513d601f19601f820116820180604052508101906112679190611ac7565b60015b6112f957611276612746565b8061128157506112be565b806040517f08c379a00000000000000000000000000000000000000000000000000000000081526004016112b59190612224565b60405180910390fd5b6040517f08c379a00000000000000000000000000000000000000000000000000000000081526004016112f090612246565b60405180910390fd5b63bc197c8160e01b7bffffffffffffffffffffffffffffffffffffffffffffffffffffffff1916817bffffffffffffffffffffffffffffffffffffffffffffffffffffffff191614611380576040517f08c379a000000000000000000000000000000000000000000000000000000000815260040161137790612266565b60405180910390fd5b505b505050505050565b60606000600167ffffffffffffffff8111156113cf577f4e487b7100000000000000000000000000000000000000000000000000000000600052604160045260246000fd5b6040519080825280602002602001820160405280156113fd5781602001602082028036833780820191505090505b509050828160008151811061143b577f4e487b7100000000000000000000000000000000000000000000000000000000600052603260045260246000fd5b60200260200101818152505080915050919050565b61146f8473ffffffffffffffffffffffffffffffffffffffff16611620565b15611618578373ffffffffffffffffffffffffffffffffffffffff1663f23a6e6187878686866040518663ffffffff1660e01b81526004016114b5959493929190612156565b602060405180830381600087803b1580156114cf57600080fd5b505af192505050801561150057506040513d601f19601f820116820180604052508101906114fd9190611ac7565b60015b61158f5761150c612746565b806115175750611554565b806040517f08c379a000000000000000000000000000000000000000000000000000000000815260040161154b9190612224565b60405180910390fd5b6040517f08c379a000000000000000000000000000000000000000000000000000000000815260040161158690612246565b60405180910390fd5b63f23a6e6160e01b7bffffffffffffffffffffffffffffffffffffffffffffffffffffffff1916817bffffffffffffffffffffffffffffffffffffffffffffffffffffffff191614611616576040517f08c379a000000000000000000000000000000000000000000000000000000000815260040161160d90612266565b60405180910390fd5b505b505050505050565b600080823b905060008111915050919050565b60006116466116418461241b565b6123ea565b9050808382526020820190508285602086028201111561166557600080fd5b60005b85811015611695578161167b8882611749565b845260208401935060208301925050600181019050611668565b5050509392505050565b60006116b26116ad84612447565b6123ea565b905080838252602082019050828560208602820111156116d157600080fd5b60005b8581101561170157816116e7888261181b565b8452602084019350602083019250506001810190506116d4565b5050509392505050565b600061171e61171984612473565b6123ea565b90508281526020810184848401111561173657600080fd5b6117418482856125de565b509392505050565b600081359050611758816127fc565b92915050565b600082601f83011261176f57600080fd5b813561177f848260208601611633565b91505092915050565b600082601f83011261179957600080fd5b81356117a984826020860161169f565b91505092915050565b6000813590506117c181612813565b92915050565b6000813590506117d68161282a565b92915050565b6000815190506117eb8161282a565b92915050565b600082601f83011261180257600080fd5b813561181284826020860161170b565b91505092915050565b60008135905061182a81612841565b92915050565b6000806040838503121561184357600080fd5b600061185185828601611749565b925050602061186285828601611749565b9150509250929050565b600080600080600060a0868803121561188457600080fd5b600061189288828901611749565b95505060206118a388828901611749565b945050604086013567ffffffffffffffff8111156118c057600080fd5b6118cc88828901611788565b935050606086013567ffffffffffffffff8111156118e957600080fd5b6118f588828901611788565b925050608086013567ffffffffffffffff81111561191257600080fd5b61191e888289016117f1565b9150509295509295909350565b600080600080600060a0868803121561194357600080fd5b600061195188828901611749565b955050602061196288828901611749565b94505060406119738882890161181b565b93505060606119848882890161181b565b925050608086013567ffffffffffffffff8111156119a157600080fd5b6119ad888289016117f1565b9150509295509295909350565b600080604083850312156119cd57600080fd5b60006119db85828601611749565b92505060206119ec858286016117b2565b9150509250929050565b60008060408385031215611a0957600080fd5b6000611a1785828601611749565b9250506020611a288582860161181b565b9150509250929050565b60008060408385031215611a4557600080fd5b600083013567ffffffffffffffff811115611a5f57600080fd5b611a6b8582860161175e565b925050602083013567ffffffffffffffff811115611a8857600080fd5b611a9485828601611788565b9150509250929050565b600060208284031215611ab057600080fd5b6000611abe848285016117c7565b91505092915050565b600060208284031215611ad957600080fd5b6000611ae7848285016117dc565b91505092915050565b600060208284031215611b0257600080fd5b6000611b108482850161181b565b91505092915050565b600080600060608486031215611b2e57600080fd5b6000611b3c8682870161181b565b9350506020611b4d8682870161181b565b9250506040611b5e86828701611749565b9150509250925092565b6000611b7483836120d0565b60208301905092915050565b611b898161256a565b82525050565b6000611b9a826124b3565b611ba481856124e1565b9350611baf836124a3565b8060005b83811015611be0578151611bc78882611b68565b9750611bd2836124d4565b925050600181019050611bb3565b5085935050505092915050565b611bf68161257c565b82525050565b6000611c07826124be565b611c1181856124f2565b9350611c218185602086016125ed565b611c2a81612728565b840191505092915050565b6000611c40826124c9565b611c4a8185612503565b9350611c5a8185602086016125ed565b611c6381612728565b840191505092915050565b6000611c7b603483612503565b91507f455243313135353a207472616e7366657220746f206e6f6e204552433131353560008301527f526563656976657220696d706c656d656e7465720000000000000000000000006020830152604082019050919050565b6000611ce1602883612503565b91507f455243313135353a204552433131353552656365697665722072656a6563746560008301527f6420746f6b656e730000000000000000000000000000000000000000000000006020830152604082019050919050565b6000611d47602b83612503565b91507f455243313135353a2062616c616e636520717565727920666f7220746865207a60008301527f65726f20616464726573730000000000000000000000000000000000000000006020830152604082019050919050565b6000611dad602983612503565b91507f455243313135353a2063616c6c6572206973206e6f74206f776e6572206e6f7260008301527f20617070726f76656400000000000000000000000000000000000000000000006020830152604082019050919050565b6000611e13602583612503565b91507f455243313135353a207472616e7366657220746f20746865207a65726f20616460008301527f64726573730000000000000000000000000000000000000000000000000000006020830152604082019050919050565b6000611e79603283612503565b91507f455243313135353a207472616e736665722063616c6c6572206973206e6f742060008301527f6f776e6572206e6f7220617070726f76656400000000000000000000000000006020830152604082019050919050565b6000611edf602a83612503565b91507f455243313135353a20696e73756666696369656e742062616c616e636520666f60008301527f72207472616e73666572000000000000000000000000000000000000000000006020830152604082019050919050565b6000611f45602983612503565b91507f455243313135353a2073657474696e6720617070726f76616c2073746174757360008301527f20666f722073656c6600000000000000000000000000000000000000000000006020830152604082019050919050565b6000611fab602983612503565b91507f455243313135353a206163636f756e747320616e6420696473206c656e67746860008301527f206d69736d6174636800000000000000000000000000000000000000000000006020830152604082019050919050565b6000612011602883612503565b91507f455243313135353a2069647320616e6420616d6f756e7473206c656e6774682060008301527f6d69736d617463680000000000000000000000000000000000000000000000006020830152604082019050919050565b6000612077602183612503565b91507f455243313135353a206d696e7420746f20746865207a65726f2061646472657360008301527f73000000000000000000000000000000000000000000000000000000000000006020830152604082019050919050565b6120d9816125d4565b82525050565b6120e8816125d4565b82525050565b600060a0820190506121036000830188611b80565b6121106020830187611b80565b81810360408301526121228186611b8f565b905081810360608301526121368185611b8f565b9050818103608083015261214a8184611bfc565b90509695505050505050565b600060a08201905061216b6000830188611b80565b6121786020830187611b80565b61218560408301866120df565b61219260608301856120df565b81810360808301526121a48184611bfc565b90509695505050505050565b600060208201905081810360008301526121ca8184611b8f565b905092915050565b600060408201905081810360008301526121ec8185611b8f565b905081810360208301526122008184611b8f565b90509392505050565b600060208201905061221e6000830184611bed565b92915050565b6000602082019050818103600083015261223e8184611c35565b905092915050565b6000602082019050818103600083015261225f81611c6e565b9050919050565b6000602082019050818103600083015261227f81611cd4565b9050919050565b6000602082019050818103600083015261229f81611d3a565b9050919050565b600060208201905081810360008301526122bf81611da0565b9050919050565b600060208201905081810360008301526122df81611e06565b9050919050565b600060208201905081810360008301526122ff81611e6c565b9050919050565b6000602082019050818103600083015261231f81611ed2565b9050919050565b6000602082019050818103600083015261233f81611f38565b9050919050565b6000602082019050818103600083015261235f81611f9e565b9050919050565b6000602082019050818103600083015261237f81612004565b9050919050565b6000602082019050818103600083015261239f8161206a565b9050919050565b60006020820190506123bb60008301846120df565b92915050565b60006040820190506123d660008301856120df565b6123e360208301846120df565b9392505050565b6000604051905081810181811067ffffffffffffffff82111715612411576124106126f9565b5b8060405250919050565b600067ffffffffffffffff821115612436576124356126f9565b5b602082029050602081019050919050565b600067ffffffffffffffff821115612462576124616126f9565b5b602082029050602081019050919050565b600067ffffffffffffffff82111561248e5761248d6126f9565b5b601f19601f8301169050602081019050919050565b6000819050602082019050919050565b600081519050919050565b600081519050919050565b600081519050919050565b6000602082019050919050565b600082825260208201905092915050565b600082825260208201905092915050565b600082825260208201905092915050565b600061251f826125d4565b915061252a836125d4565b9250827fffffffffffffffffffffffffffffffffffffffffffffffffffffffffffffffff0382111561255f5761255e61269b565b5b828201905092915050565b6000612575826125b4565b9050919050565b60008115159050919050565b60007fffffffff0000000000000000000000000000000000000000000000000000000082169050919050565b600073ffffffffffffffffffffffffffffffffffffffff82169050919050565b6000819050919050565b82818337600083830152505050565b60005b8381101561260b5780820151818401526020810190506125f0565b8381111561261a576000848401525b50505050565b6000600282049050600182168061263857607f821691505b6020821081141561264c5761264b6126ca565b5b50919050565b600061265d826125d4565b91507fffffffffffffffffffffffffffffffffffffffffffffffffffffffffffffffff8214156126905761268f61269b565b5b600182019050919050565b7f4e487b7100000000000000000000000000000000000000000000000000000000600052601160045260246000fd5b7f4e487b7100000000000000000000000000000000000000000000000000000000600052602260045260246000fd5b7f4e487b7100000000000000000000000000000000000000000000000000000000600052604160045260246000fd5b6000601f19601f8301169050919050565b60008160e01c9050919050565b600060443d1015612756576127f9565b60046000803e612767600051612739565b6308c379a0811461277857506127f9565b60405160043d036004823e80513d602482011167ffffffffffffffff821117156127a4575050506127f9565b808201805167ffffffffffffffff8111156127c35750505050506127f9565b8060208301013d85018111156127de575050505050506127f9565b6127e782612728565b60208401016040528296505050505050505b90565b6128058161256a565b811461281057600080fd5b50565b61281c8161257c565b811461282757600080fd5b50565b61283381612588565b811461283e57600080fd5b50565b61284a816125d4565b811461285557600080fd5b5056fea2646970667358221220ad83950b76450e1673962a8b06b9eee92c7c387c208b2cff0a1035b966b3e3a264736f6c6343000800003368747470733a2f2f6578616d706c652e636f6d2f6170692f7b69647d2e6a736f6e",
  "immutableReferences": {},
  "source": "// SPDX-License-Identifier: MIT\r\npragma solidity ^0.8.0;\r\n\r\nimport \"@openzeppelin/contracts/token/ERC1155/ERC1155.sol\";\r\n\r\ncontract BookStore is ERC1155 {\r\n\r\n    uint256 private _currentBookVersionId;\r\n\r\n    constructor() ERC1155('https://example.com/api/{id}.json') {\r\n        _currentBookVersionId = 1;\r\n    }\r\n\r\n    function publish(uint256 _quantity, uint256 _price, address _currency) public {\r\n        _mint(msg.sender, _currentBookVersionId, _quantity, \"\");\r\n        _currentBookVersionId += 1;\r\n    }\r\n\r\n    function bookVersionPrice(uint256 _bookVersionId) public view returns(uint256) {\r\n        return 50 * (10 ** 18);\r\n    }\r\n\r\n}",
  "sourcePath": "/mnt/c/Users/anike/onedrive/desktop/nftbookstore/contracts/contracts/BookStore.sol",
  "compiler": {
    "name": "solc",
    "version": "0.8.0+commit.c7dfd78e.Emscripten.clang"
  },
  "schemaVersion": "3.2.3",
  "updatedAt": "2021-07-11T23:36:03.861Z",
  "networkType": "ethereum",
  "devdoc": {
    "kind": "dev",
    "methods": {
      "balanceOf(address,uint256)": {
        "details": "See {IERC1155-balanceOf}. Requirements: - `account` cannot be the zero address."
      },
      "balanceOfBatch(address[],uint256[])": {
        "details": "See {IERC1155-balanceOfBatch}. Requirements: - `accounts` and `ids` must have the same length."
      },
      "isApprovedForAll(address,address)": {
        "details": "See {IERC1155-isApprovedForAll}."
      },
      "safeBatchTransferFrom(address,address,uint256[],uint256[],bytes)": {
        "details": "See {IERC1155-safeBatchTransferFrom}."
      },
      "safeTransferFrom(address,address,uint256,uint256,bytes)": {
        "details": "See {IERC1155-safeTransferFrom}."
      },
      "setApprovalForAll(address,bool)": {
        "details": "See {IERC1155-setApprovalForAll}."
      },
      "supportsInterface(bytes4)": {
        "details": "See {IERC165-supportsInterface}."
      },
      "uri(uint256)": {
        "details": "See {IERC1155MetadataURI-uri}. This implementation returns the same URI for *all* token types. It relies on the token type ID substitution mechanism https://eips.ethereum.org/EIPS/eip-1155#metadata[defined in the EIP]. Clients calling this function must replace the `\\{id\\}` substring with the actual token type ID."
      }
    },
    "version": 1
  },
  "userdoc": {
    "kind": "user",
    "methods": {},
    "version": 1
  }
}